{
  "contractName": "NftInsuranceDapp",
  "abi": [
    {
      "anonymous": false,
      "inputs": [
        {
          "indexed": true,
          "internalType": "address",
          "name": "owner",
          "type": "address"
        },
        {
          "indexed": true,
          "internalType": "address",
          "name": "approved",
          "type": "address"
        },
        {
          "indexed": true,
          "internalType": "uint256",
          "name": "tokenId",
          "type": "uint256"
        }
      ],
      "name": "Approval",
      "type": "event"
    },
    {
      "anonymous": false,
      "inputs": [
        {
          "indexed": true,
          "internalType": "address",
          "name": "owner",
          "type": "address"
        },
        {
          "indexed": true,
          "internalType": "address",
          "name": "operator",
          "type": "address"
        },
        {
          "indexed": false,
          "internalType": "bool",
          "name": "approved",
          "type": "bool"
        }
      ],
      "name": "ApprovalForAll",
      "type": "event"
    },
    {
      "anonymous": false,
      "inputs": [
        {
          "indexed": true,
          "internalType": "address",
          "name": "previousOwner",
          "type": "address"
        },
        {
          "indexed": true,
          "internalType": "address",
          "name": "newOwner",
          "type": "address"
        }
      ],
      "name": "OwnershipTransferred",
      "type": "event"
    },
    {
      "anonymous": false,
      "inputs": [
        {
          "indexed": true,
          "internalType": "address",
          "name": "from",
          "type": "address"
        },
        {
          "indexed": true,
          "internalType": "address",
          "name": "to",
          "type": "address"
        },
        {
          "indexed": true,
          "internalType": "uint256",
          "name": "tokenId",
          "type": "uint256"
        }
      ],
      "name": "Transfer",
      "type": "event"
    },
    {
      "inputs": [
        {
          "internalType": "address",
          "name": "to",
          "type": "address"
        },
        {
          "internalType": "uint256",
          "name": "tokenId",
          "type": "uint256"
        }
      ],
      "name": "approve",
      "outputs": [],
      "stateMutability": "nonpayable",
      "type": "function"
    },
    {
      "inputs": [
        {
          "internalType": "address",
          "name": "owner",
          "type": "address"
        }
      ],
      "name": "balanceOf",
      "outputs": [
        {
          "internalType": "uint256",
          "name": "",
          "type": "uint256"
        }
      ],
      "stateMutability": "view",
      "type": "function",
      "constant": true
    },
    {
      "inputs": [
        {
          "internalType": "uint256",
          "name": "tokenId",
          "type": "uint256"
        }
      ],
      "name": "getApproved",
      "outputs": [
        {
          "internalType": "address",
          "name": "",
          "type": "address"
        }
      ],
      "stateMutability": "view",
      "type": "function",
      "constant": true
    },
    {
      "inputs": [
        {
          "internalType": "address",
          "name": "owner",
          "type": "address"
        },
        {
          "internalType": "address",
          "name": "operator",
          "type": "address"
        }
      ],
      "name": "isApprovedForAll",
      "outputs": [
        {
          "internalType": "bool",
          "name": "",
          "type": "bool"
        }
      ],
      "stateMutability": "view",
      "type": "function",
      "constant": true
    },
    {
      "inputs": [
        {
          "internalType": "address",
          "name": "recipient",
          "type": "address"
        },
        {
          "internalType": "string",
          "name": "tokenURI",
          "type": "string"
        }
      ],
      "name": "mintNFT",
      "outputs": [
        {
          "internalType": "uint256",
          "name": "",
          "type": "uint256"
        }
      ],
      "stateMutability": "nonpayable",
      "type": "function"
    },
    {
      "inputs": [],
      "name": "name",
      "outputs": [
        {
          "internalType": "string",
          "name": "",
          "type": "string"
        }
      ],
      "stateMutability": "view",
      "type": "function",
      "constant": true
    },
    {
      "inputs": [],
      "name": "owner",
      "outputs": [
        {
          "internalType": "address",
          "name": "",
          "type": "address"
        }
      ],
      "stateMutability": "view",
      "type": "function",
      "constant": true
    },
    {
      "inputs": [
        {
          "internalType": "uint256",
          "name": "tokenId",
          "type": "uint256"
        }
      ],
      "name": "ownerOf",
      "outputs": [
        {
          "internalType": "address",
          "name": "",
          "type": "address"
        }
      ],
      "stateMutability": "view",
      "type": "function",
      "constant": true
    },
    {
      "inputs": [],
      "name": "renounceOwnership",
      "outputs": [],
      "stateMutability": "nonpayable",
      "type": "function"
    },
    {
      "inputs": [
        {
          "internalType": "address",
          "name": "from",
          "type": "address"
        },
        {
          "internalType": "address",
          "name": "to",
          "type": "address"
        },
        {
          "internalType": "uint256",
          "name": "tokenId",
          "type": "uint256"
        }
      ],
      "name": "safeTransferFrom",
      "outputs": [],
      "stateMutability": "nonpayable",
      "type": "function"
    },
    {
      "inputs": [
        {
          "internalType": "address",
          "name": "from",
          "type": "address"
        },
        {
          "internalType": "address",
          "name": "to",
          "type": "address"
        },
        {
          "internalType": "uint256",
          "name": "tokenId",
          "type": "uint256"
        },
        {
          "internalType": "bytes",
          "name": "_data",
          "type": "bytes"
        }
      ],
      "name": "safeTransferFrom",
      "outputs": [],
      "stateMutability": "nonpayable",
      "type": "function"
    },
    {
      "inputs": [
        {
          "internalType": "address",
          "name": "operator",
          "type": "address"
        },
        {
          "internalType": "bool",
          "name": "approved",
          "type": "bool"
        }
      ],
      "name": "setApprovalForAll",
      "outputs": [],
      "stateMutability": "nonpayable",
      "type": "function"
    },
    {
      "inputs": [
        {
          "internalType": "bytes4",
          "name": "interfaceId",
          "type": "bytes4"
        }
      ],
      "name": "supportsInterface",
      "outputs": [
        {
          "internalType": "bool",
          "name": "",
          "type": "bool"
        }
      ],
      "stateMutability": "view",
      "type": "function",
      "constant": true
    },
    {
      "inputs": [],
      "name": "symbol",
      "outputs": [
        {
          "internalType": "string",
          "name": "",
          "type": "string"
        }
      ],
      "stateMutability": "view",
      "type": "function",
      "constant": true
    },
    {
      "inputs": [
        {
          "internalType": "uint256",
          "name": "tokenId",
          "type": "uint256"
        }
      ],
      "name": "tokenURI",
      "outputs": [
        {
          "internalType": "string",
          "name": "",
          "type": "string"
        }
      ],
      "stateMutability": "view",
      "type": "function",
      "constant": true
    },
    {
      "inputs": [
        {
          "internalType": "address",
          "name": "from",
          "type": "address"
        },
        {
          "internalType": "address",
          "name": "to",
          "type": "address"
        },
        {
          "internalType": "uint256",
          "name": "tokenId",
          "type": "uint256"
        }
      ],
      "name": "transferFrom",
      "outputs": [],
      "stateMutability": "nonpayable",
      "type": "function"
    },
    {
      "inputs": [
        {
          "internalType": "address",
          "name": "newOwner",
          "type": "address"
        }
      ],
      "name": "transferOwnership",
      "outputs": [],
      "stateMutability": "nonpayable",
      "type": "function"
    },
    {
      "inputs": [
        {
          "internalType": "uint256",
          "name": "",
          "type": "uint256"
        }
      ],
      "name": "users",
      "outputs": [
        {
          "internalType": "address",
          "name": "user",
          "type": "address"
        },
        {
          "internalType": "uint256",
          "name": "amount",
          "type": "uint256"
        }
      ],
      "stateMutability": "view",
      "type": "function",
      "constant": true
    },
    {
      "inputs": [],
      "name": "createUser",
      "outputs": [],
      "stateMutability": "payable",
      "type": "function",
      "payable": true
    }
  ],
  "bytecode": "0x60806040523480156200001157600080fd5b506040518060400160405280600581526020017f4d794e46540000000000000000000000000000000000000000000000000000008152506040518060400160405280600381526020017f4e46540000000000000000000000000000000000000000000000000000000000815250816000908051906020019062000096929190620001a6565b508060019080519060200190620000af929190620001a6565b505050620000d2620000c6620000d860201b60201c565b620000e060201b60201c565b620002bb565b600033905090565b6000600760009054906101000a900473ffffffffffffffffffffffffffffffffffffffff16905081600760006101000a81548173ffffffffffffffffffffffffffffffffffffffff021916908373ffffffffffffffffffffffffffffffffffffffff1602179055508173ffffffffffffffffffffffffffffffffffffffff168173ffffffffffffffffffffffffffffffffffffffff167f8be0079c531659141344cd1fd0a4f28419497f9722a3daafe3b4186f6b6457e060405160405180910390a35050565b828054620001b49062000256565b90600052602060002090601f016020900481019282620001d8576000855562000224565b82601f10620001f357805160ff191683800117855562000224565b8280016001018555821562000224579182015b828111156200022357825182559160200191906001019062000206565b5b50905062000233919062000237565b5090565b5b808211156200025257600081600090555060010162000238565b5090565b600060028204905060018216806200026f57607f821691505b602082108114156200028657620002856200028c565b5b50919050565b7f4e487b7100000000000000000000000000000000000000000000000000000000600052602260045260246000fd5b61324d80620002cb6000396000f3fe6080604052600436106101145760003560e01c806370a08231116100a0578063b88d4fde11610064578063b88d4fde14610391578063c87b56dd146103ba578063e985e9c5146103f7578063eacabe1414610434578063f2fde38b1461047157610114565b806370a08231146102be578063715018a6146102fb5780638da5cb5b1461031257806395d89b411461033d578063a22cb4651461036857610114565b806323b872dd116100e757806323b872dd146101e757806325ad91ce14610210578063365b98b21461021a57806342842e0e146102585780636352211e1461028157610114565b806301ffc9a71461011957806306fdde0314610156578063081812fc14610181578063095ea7b3146101be575b600080fd5b34801561012557600080fd5b50610140600480360381019061013b91906121d3565b61049a565b60405161014d9190612648565b60405180910390f35b34801561016257600080fd5b5061016b61057c565b6040516101789190612663565b60405180910390f35b34801561018d57600080fd5b506101a860048036038101906101a39190612225565b61060e565b6040516101b591906125b8565b60405180910390f35b3480156101ca57600080fd5b506101e560048036038101906101e09190612197565b610693565b005b3480156101f357600080fd5b5061020e6004803603810190610209919061203d565b6107ab565b005b61021861080b565b005b34801561022657600080fd5b50610241600480360381019061023c9190612225565b6108c4565b60405161024f92919061261f565b60405180910390f35b34801561026457600080fd5b5061027f600480360381019061027a919061203d565b610918565b005b34801561028d57600080fd5b506102a860048036038101906102a39190612225565b610938565b6040516102b591906125b8565b60405180910390f35b3480156102ca57600080fd5b506102e560048036038101906102e09190611fd8565b6109ea565b6040516102f291906128c5565b60405180910390f35b34801561030757600080fd5b50610310610aa2565b005b34801561031e57600080fd5b50610327610b2a565b60405161033491906125b8565b60405180910390f35b34801561034957600080fd5b50610352610b54565b60405161035f9190612663565b60405180910390f35b34801561037457600080fd5b5061038f600480360381019061038a9190612107565b610be6565b005b34801561039d57600080fd5b506103b860048036038101906103b3919061208c565b610bfc565b005b3480156103c657600080fd5b506103e160048036038101906103dc9190612225565b610c5e565b6040516103ee9190612663565b60405180910390f35b34801561040357600080fd5b5061041e60048036038101906104199190612001565b610db0565b60405161042b9190612648565b60405180910390f35b34801561044057600080fd5b5061045b60048036038101906104569190612143565b610e44565b60405161046891906128c5565b60405180910390f35b34801561047d57600080fd5b5061049860048036038101906104939190611fd8565b610ef8565b005b60007f80ac58cd000000000000000000000000000000000000000000000000000000007bffffffffffffffffffffffffffffffffffffffffffffffffffffffff1916827bffffffffffffffffffffffffffffffffffffffffffffffffffffffff1916148061056557507f5b5e139f000000000000000000000000000000000000000000000000000000007bffffffffffffffffffffffffffffffffffffffffffffffffffffffff1916827bffffffffffffffffffffffffffffffffffffffffffffffffffffffff1916145b80610575575061057482610ff0565b5b9050919050565b60606000805461058b90612b1b565b80601f01602080910402602001604051908101604052809291908181526020018280546105b790612b1b565b80156106045780601f106105d957610100808354040283529160200191610604565b820191906000526020600020905b8154815290600101906020018083116105e757829003601f168201915b5050505050905090565b60006106198261105a565b610658576040517f08c379a000000000000000000000000000000000000000000000000000000000815260040161064f90612825565b60405180910390fd5b6004600083815260200190815260200160002060009054906101000a900473ffffffffffffffffffffffffffffffffffffffff169050919050565b600061069e82610938565b90508073ffffffffffffffffffffffffffffffffffffffff168373ffffffffffffffffffffffffffffffffffffffff16141561070f576040517f08c379a000000000000000000000000000000000000000000000000000000000815260040161070690612885565b60405180910390fd5b8073ffffffffffffffffffffffffffffffffffffffff1661072e6110c6565b73ffffffffffffffffffffffffffffffffffffffff16148061075d575061075c816107576110c6565b610db0565b5b61079c576040517f08c379a000000000000000000000000000000000000000000000000000000000815260040161079390612765565b60405180910390fd5b6107a683836110ce565b505050565b6107bc6107b66110c6565b82611187565b6107fb576040517f08c379a00000000000000000000000000000000000000000000000000000000081526004016107f2906128a5565b60405180910390fd5b610806838383611265565b505050565b600034101561081957600080fd5b600960405180604001604052803373ffffffffffffffffffffffffffffffffffffffff16815260200134815250908060018154018082558091505060019003906000526020600020906002020160009091909190915060008201518160000160006101000a81548173ffffffffffffffffffffffffffffffffffffffff021916908373ffffffffffffffffffffffffffffffffffffffff160217905550602082015181600101555050565b600981815481106108d457600080fd5b90600052602060002090600202016000915090508060000160009054906101000a900473ffffffffffffffffffffffffffffffffffffffff16908060010154905082565b61093383838360405180602001604052806000815250610bfc565b505050565b6000806002600084815260200190815260200160002060009054906101000a900473ffffffffffffffffffffffffffffffffffffffff169050600073ffffffffffffffffffffffffffffffffffffffff168173ffffffffffffffffffffffffffffffffffffffff1614156109e1576040517f08c379a00000000000000000000000000000000000000000000000000000000081526004016109d8906127a5565b60405180910390fd5b80915050919050565b60008073ffffffffffffffffffffffffffffffffffffffff168273ffffffffffffffffffffffffffffffffffffffff161415610a5b576040517f08c379a0000000000000000000000000000000000000000000000000000000008152600401610a5290612785565b60405180910390fd5b600360008373ffffffffffffffffffffffffffffffffffffffff1673ffffffffffffffffffffffffffffffffffffffff168152602001908152602001600020549050919050565b610aaa6110c6565b73ffffffffffffffffffffffffffffffffffffffff16610ac8610b2a565b73ffffffffffffffffffffffffffffffffffffffff1614610b1e576040517f08c379a0000000000000000000000000000000000000000000000000000000008152600401610b1590612845565b60405180910390fd5b610b2860006114cc565b565b6000600760009054906101000a900473ffffffffffffffffffffffffffffffffffffffff16905090565b606060018054610b6390612b1b565b80601f0160208091040260200160405190810160405280929190818152602001828054610b8f90612b1b565b8015610bdc5780601f10610bb157610100808354040283529160200191610bdc565b820191906000526020600020905b815481529060010190602001808311610bbf57829003601f168201915b5050505050905090565b610bf8610bf16110c6565b8383611592565b5050565b610c0d610c076110c6565b83611187565b610c4c576040517f08c379a0000000000000000000000000000000000000000000000000000000008152600401610c43906128a5565b60405180910390fd5b610c58848484846116ff565b50505050565b6060610c698261105a565b610ca8576040517f08c379a0000000000000000000000000000000000000000000000000000000008152600401610c9f90612805565b60405180910390fd5b6000600660008481526020019081526020016000208054610cc890612b1b565b80601f0160208091040260200160405190810160405280929190818152602001828054610cf490612b1b565b8015610d415780601f10610d1657610100808354040283529160200191610d41565b820191906000526020600020905b815481529060010190602001808311610d2457829003601f168201915b505050505090506000610d5261175b565b9050600081511415610d68578192505050610dab565b600082511115610d9d578082604051602001610d85929190612594565b60405160208183030381529060405292505050610dab565b610da684611772565b925050505b919050565b6000600560008473ffffffffffffffffffffffffffffffffffffffff1673ffffffffffffffffffffffffffffffffffffffff16815260200190815260200160002060008373ffffffffffffffffffffffffffffffffffffffff1673ffffffffffffffffffffffffffffffffffffffff16815260200190815260200160002060009054906101000a900460ff16905092915050565b6000610e4e6110c6565b73ffffffffffffffffffffffffffffffffffffffff16610e6c610b2a565b73ffffffffffffffffffffffffffffffffffffffff1614610ec2576040517f08c379a0000000000000000000000000000000000000000000000000000000008152600401610eb990612845565b60405180910390fd5b610ecc6008611819565b6000610ed8600861182f565b9050610ee4848261183d565b610eee8184611a17565b8091505092915050565b610f006110c6565b73ffffffffffffffffffffffffffffffffffffffff16610f1e610b2a565b73ffffffffffffffffffffffffffffffffffffffff1614610f74576040517f08c379a0000000000000000000000000000000000000000000000000000000008152600401610f6b90612845565b60405180910390fd5b600073ffffffffffffffffffffffffffffffffffffffff168173ffffffffffffffffffffffffffffffffffffffff161415610fe4576040517f08c379a0000000000000000000000000000000000000000000000000000000008152600401610fdb906126a5565b60405180910390fd5b610fed816114cc565b50565b60007f01ffc9a7000000000000000000000000000000000000000000000000000000007bffffffffffffffffffffffffffffffffffffffffffffffffffffffff1916827bffffffffffffffffffffffffffffffffffffffffffffffffffffffff1916149050919050565b60008073ffffffffffffffffffffffffffffffffffffffff166002600084815260200190815260200160002060009054906101000a900473ffffffffffffffffffffffffffffffffffffffff1673ffffffffffffffffffffffffffffffffffffffff1614159050919050565b600033905090565b816004600083815260200190815260200160002060006101000a81548173ffffffffffffffffffffffffffffffffffffffff021916908373ffffffffffffffffffffffffffffffffffffffff160217905550808273ffffffffffffffffffffffffffffffffffffffff1661114183610938565b73ffffffffffffffffffffffffffffffffffffffff167f8c5be1e5ebec7d5bd14f71427d1e84f3dd0314c0f7b2291e5b200ac8c7c3b92560405160405180910390a45050565b60006111928261105a565b6111d1576040517f08c379a00000000000000000000000000000000000000000000000000000000081526004016111c890612745565b60405180910390fd5b60006111dc83610938565b90508073ffffffffffffffffffffffffffffffffffffffff168473ffffffffffffffffffffffffffffffffffffffff16148061121e575061121d8185610db0565b5b8061125c57508373ffffffffffffffffffffffffffffffffffffffff166112448461060e565b73ffffffffffffffffffffffffffffffffffffffff16145b91505092915050565b8273ffffffffffffffffffffffffffffffffffffffff1661128582610938565b73ffffffffffffffffffffffffffffffffffffffff16146112db576040517f08c379a00000000000000000000000000000000000000000000000000000000081526004016112d2906126c5565b60405180910390fd5b600073ffffffffffffffffffffffffffffffffffffffff168273ffffffffffffffffffffffffffffffffffffffff16141561134b576040517f08c379a000000000000000000000000000000000000000000000000000000000815260040161134290612705565b60405180910390fd5b611356838383611a8b565b6113616000826110ce565b6001600360008573ffffffffffffffffffffffffffffffffffffffff1673ffffffffffffffffffffffffffffffffffffffff16815260200190815260200160002060008282546113b19190612a31565b925050819055506001600360008473ffffffffffffffffffffffffffffffffffffffff1673ffffffffffffffffffffffffffffffffffffffff168152602001908152602001600020600082825461140891906129aa565b92505081905550816002600083815260200190815260200160002060006101000a81548173ffffffffffffffffffffffffffffffffffffffff021916908373ffffffffffffffffffffffffffffffffffffffff160217905550808273ffffffffffffffffffffffffffffffffffffffff168473ffffffffffffffffffffffffffffffffffffffff167fddf252ad1be2c89b69c2b068fc378daa952ba7f163c4a11628f55a4df523b3ef60405160405180910390a46114c7838383611a90565b505050565b6000600760009054906101000a900473ffffffffffffffffffffffffffffffffffffffff16905081600760006101000a81548173ffffffffffffffffffffffffffffffffffffffff021916908373ffffffffffffffffffffffffffffffffffffffff1602179055508173ffffffffffffffffffffffffffffffffffffffff168173ffffffffffffffffffffffffffffffffffffffff167f8be0079c531659141344cd1fd0a4f28419497f9722a3daafe3b4186f6b6457e060405160405180910390a35050565b8173ffffffffffffffffffffffffffffffffffffffff168373ffffffffffffffffffffffffffffffffffffffff161415611601576040517f08c379a00000000000000000000000000000000000000000000000000000000081526004016115f890612725565b60405180910390fd5b80600560008573ffffffffffffffffffffffffffffffffffffffff1673ffffffffffffffffffffffffffffffffffffffff16815260200190815260200160002060008473ffffffffffffffffffffffffffffffffffffffff1673ffffffffffffffffffffffffffffffffffffffff16815260200190815260200160002060006101000a81548160ff0219169083151502179055508173ffffffffffffffffffffffffffffffffffffffff168373ffffffffffffffffffffffffffffffffffffffff167f17307eab39ab6107e8899845ad3d59bd9653f200f220920489ca2b5937696c31836040516116f29190612648565b60405180910390a3505050565b61170a848484611265565b61171684848484611a95565b611755576040517f08c379a000000000000000000000000000000000000000000000000000000000815260040161174c90612685565b60405180910390fd5b50505050565b606060405180602001604052806000815250905090565b606061177d8261105a565b6117bc576040517f08c379a00000000000000000000000000000000000000000000000000000000081526004016117b390612865565b60405180910390fd5b60006117c661175b565b905060008151116117e65760405180602001604052806000815250611811565b806117f084611c2c565b604051602001611801929190612594565b6040516020818303038152906040525b915050919050565b6001816000016000828254019250508190555050565b600081600001549050919050565b600073ffffffffffffffffffffffffffffffffffffffff168273ffffffffffffffffffffffffffffffffffffffff1614156118ad576040517f08c379a00000000000000000000000000000000000000000000000000000000081526004016118a4906127e5565b60405180910390fd5b6118b68161105a565b156118f6576040517f08c379a00000000000000000000000000000000000000000000000000000000081526004016118ed906126e5565b60405180910390fd5b61190260008383611a8b565b6001600360008473ffffffffffffffffffffffffffffffffffffffff1673ffffffffffffffffffffffffffffffffffffffff168152602001908152602001600020600082825461195291906129aa565b92505081905550816002600083815260200190815260200160002060006101000a81548173ffffffffffffffffffffffffffffffffffffffff021916908373ffffffffffffffffffffffffffffffffffffffff160217905550808273ffffffffffffffffffffffffffffffffffffffff16600073ffffffffffffffffffffffffffffffffffffffff167fddf252ad1be2c89b69c2b068fc378daa952ba7f163c4a11628f55a4df523b3ef60405160405180910390a4611a1360008383611a90565b5050565b611a208261105a565b611a5f576040517f08c379a0000000000000000000000000000000000000000000000000000000008152600401611a56906127c5565b60405180910390fd5b80600660008481526020019081526020016000209080519060200190611a86929190611dfc565b505050565b505050565b505050565b6000611ab68473ffffffffffffffffffffffffffffffffffffffff16611dd9565b15611c1f578373ffffffffffffffffffffffffffffffffffffffff1663150b7a02611adf6110c6565b8786866040518563ffffffff1660e01b8152600401611b0194939291906125d3565b602060405180830381600087803b158015611b1b57600080fd5b505af1925050508015611b4c57506040513d601f19601f82011682018060405250810190611b4991906121fc565b60015b611bcf573d8060008114611b7c576040519150601f19603f3d011682016040523d82523d6000602084013e611b81565b606091505b50600081511415611bc7576040517f08c379a0000000000000000000000000000000000000000000000000000000008152600401611bbe90612685565b60405180910390fd5b805181602001fd5b63150b7a0260e01b7bffffffffffffffffffffffffffffffffffffffffffffffffffffffff1916817bffffffffffffffffffffffffffffffffffffffffffffffffffffffff191614915050611c24565b600190505b949350505050565b60606000821415611c74576040518060400160405280600181526020017f30000000000000000000000000000000000000000000000000000000000000008152509050611dd4565b600082905060005b60008214611ca6578080611c8f90612b7e565b915050600a82611c9f9190612a00565b9150611c7c565b60008167ffffffffffffffff811115611ce8577f4e487b7100000000000000000000000000000000000000000000000000000000600052604160045260246000fd5b6040519080825280601f01601f191660200182016040528015611d1a5781602001600182028036833780820191505090505b5090505b60008514611dcd57600182611d339190612a31565b9150600a85611d429190612bc7565b6030611d4e91906129aa565b60f81b818381518110611d8a577f4e487b7100000000000000000000000000000000000000000000000000000000600052603260045260246000fd5b60200101907effffffffffffffffffffffffffffffffffffffffffffffffffffffffffffff1916908160001a905350600a85611dc69190612a00565b9450611d1e565b8093505050505b919050565b6000808273ffffffffffffffffffffffffffffffffffffffff163b119050919050565b828054611e0890612b1b565b90600052602060002090601f016020900481019282611e2a5760008555611e71565b82601f10611e4357805160ff1916838001178555611e71565b82800160010185558215611e71579182015b82811115611e70578251825591602001919060010190611e55565b5b509050611e7e9190611e82565b5090565b5b80821115611e9b576000816000905550600101611e83565b5090565b6000611eb2611ead84612905565b6128e0565b905082815260208101848484011115611eca57600080fd5b611ed5848285612ad9565b509392505050565b6000611ef0611eeb84612936565b6128e0565b905082815260208101848484011115611f0857600080fd5b611f13848285612ad9565b509392505050565b600081359050611f2a816131bb565b92915050565b600081359050611f3f816131d2565b92915050565b600081359050611f54816131e9565b92915050565b600081519050611f69816131e9565b92915050565b600082601f830112611f8057600080fd5b8135611f90848260208601611e9f565b91505092915050565b600082601f830112611faa57600080fd5b8135611fba848260208601611edd565b91505092915050565b600081359050611fd281613200565b92915050565b600060208284031215611fea57600080fd5b6000611ff884828501611f1b565b91505092915050565b6000806040838503121561201457600080fd5b600061202285828601611f1b565b925050602061203385828601611f1b565b9150509250929050565b60008060006060848603121561205257600080fd5b600061206086828701611f1b565b935050602061207186828701611f1b565b925050604061208286828701611fc3565b9150509250925092565b600080600080608085870312156120a257600080fd5b60006120b087828801611f1b565b94505060206120c187828801611f1b565b93505060406120d287828801611fc3565b925050606085013567ffffffffffffffff8111156120ef57600080fd5b6120fb87828801611f6f565b91505092959194509250565b6000806040838503121561211a57600080fd5b600061212885828601611f1b565b925050602061213985828601611f30565b9150509250929050565b6000806040838503121561215657600080fd5b600061216485828601611f1b565b925050602083013567ffffffffffffffff81111561218157600080fd5b61218d85828601611f99565b9150509250929050565b600080604083850312156121aa57600080fd5b60006121b885828601611f1b565b92505060206121c985828601611fc3565b9150509250929050565b6000602082840312156121e557600080fd5b60006121f384828501611f45565b91505092915050565b60006020828403121561220e57600080fd5b600061221c84828501611f5a565b91505092915050565b60006020828403121561223757600080fd5b600061224584828501611fc3565b91505092915050565b61225781612a65565b82525050565b61226681612a77565b82525050565b600061227782612967565b612281818561297d565b9350612291818560208601612ae8565b61229a81612cb4565b840191505092915050565b60006122b082612972565b6122ba818561298e565b93506122ca818560208601612ae8565b6122d381612cb4565b840191505092915050565b60006122e982612972565b6122f3818561299f565b9350612303818560208601612ae8565b80840191505092915050565b600061231c60328361298e565b915061232782612cc5565b604082019050919050565b600061233f60268361298e565b915061234a82612d14565b604082019050919050565b600061236260258361298e565b915061236d82612d63565b604082019050919050565b6000612385601c8361298e565b915061239082612db2565b602082019050919050565b60006123a860248361298e565b91506123b382612ddb565b604082019050919050565b60006123cb60198361298e565b91506123d682612e2a565b602082019050919050565b60006123ee602c8361298e565b91506123f982612e53565b604082019050919050565b600061241160388361298e565b915061241c82612ea2565b604082019050919050565b6000612434602a8361298e565b915061243f82612ef1565b604082019050919050565b600061245760298361298e565b915061246282612f40565b604082019050919050565b600061247a602e8361298e565b915061248582612f8f565b604082019050919050565b600061249d60208361298e565b91506124a882612fde565b602082019050919050565b60006124c060318361298e565b91506124cb82613007565b604082019050919050565b60006124e3602c8361298e565b91506124ee82613056565b604082019050919050565b600061250660208361298e565b9150612511826130a5565b602082019050919050565b6000612529602f8361298e565b9150612534826130ce565b604082019050919050565b600061254c60218361298e565b91506125578261311d565b604082019050919050565b600061256f60318361298e565b915061257a8261316c565b604082019050919050565b61258e81612acf565b82525050565b60006125a082856122de565b91506125ac82846122de565b91508190509392505050565b60006020820190506125cd600083018461224e565b92915050565b60006080820190506125e8600083018761224e565b6125f5602083018661224e565b6126026040830185612585565b8181036060830152612614818461226c565b905095945050505050565b6000604082019050612634600083018561224e565b6126416020830184612585565b9392505050565b600060208201905061265d600083018461225d565b92915050565b6000602082019050818103600083015261267d81846122a5565b905092915050565b6000602082019050818103600083015261269e8161230f565b9050919050565b600060208201905081810360008301526126be81612332565b9050919050565b600060208201905081810360008301526126de81612355565b9050919050565b600060208201905081810360008301526126fe81612378565b9050919050565b6000602082019050818103600083015261271e8161239b565b9050919050565b6000602082019050818103600083015261273e816123be565b9050919050565b6000602082019050818103600083015261275e816123e1565b9050919050565b6000602082019050818103600083015261277e81612404565b9050919050565b6000602082019050818103600083015261279e81612427565b9050919050565b600060208201905081810360008301526127be8161244a565b9050919050565b600060208201905081810360008301526127de8161246d565b9050919050565b600060208201905081810360008301526127fe81612490565b9050919050565b6000602082019050818103600083015261281e816124b3565b9050919050565b6000602082019050818103600083015261283e816124d6565b9050919050565b6000602082019050818103600083015261285e816124f9565b9050919050565b6000602082019050818103600083015261287e8161251c565b9050919050565b6000602082019050818103600083015261289e8161253f565b9050919050565b600060208201905081810360008301526128be81612562565b9050919050565b60006020820190506128da6000830184612585565b92915050565b60006128ea6128fb565b90506128f68282612b4d565b919050565b6000604051905090565b600067ffffffffffffffff8211156129205761291f612c85565b5b61292982612cb4565b9050602081019050919050565b600067ffffffffffffffff82111561295157612950612c85565b5b61295a82612cb4565b9050602081019050919050565b600081519050919050565b600081519050919050565b600082825260208201905092915050565b600082825260208201905092915050565b600081905092915050565b60006129b582612acf565b91506129c083612acf565b9250827fffffffffffffffffffffffffffffffffffffffffffffffffffffffffffffffff038211156129f5576129f4612bf8565b5b828201905092915050565b6000612a0b82612acf565b9150612a1683612acf565b925082612a2657612a25612c27565b5b828204905092915050565b6000612a3c82612acf565b9150612a4783612acf565b925082821015612a5a57612a59612bf8565b5b828203905092915050565b6000612a7082612aaf565b9050919050565b60008115159050919050565b60007fffffffff0000000000000000000000000000000000000000000000000000000082169050919050565b600073ffffffffffffffffffffffffffffffffffffffff82169050919050565b6000819050919050565b82818337600083830152505050565b60005b83811015612b06578082015181840152602081019050612aeb565b83811115612b15576000848401525b50505050565b60006002820490506001821680612b3357607f821691505b60208210811415612b4757612b46612c56565b5b50919050565b612b5682612cb4565b810181811067ffffffffffffffff82111715612b7557612b74612c85565b5b80604052505050565b6000612b8982612acf565b91507fffffffffffffffffffffffffffffffffffffffffffffffffffffffffffffffff821415612bbc57612bbb612bf8565b5b600182019050919050565b6000612bd282612acf565b9150612bdd83612acf565b925082612bed57612bec612c27565b5b828206905092915050565b7f4e487b7100000000000000000000000000000000000000000000000000000000600052601160045260246000fd5b7f4e487b7100000000000000000000000000000000000000000000000000000000600052601260045260246000fd5b7f4e487b7100000000000000000000000000000000000000000000000000000000600052602260045260246000fd5b7f4e487b7100000000000000000000000000000000000000000000000000000000600052604160045260246000fd5b6000601f19601f8301169050919050565b7f4552433732313a207472616e7366657220746f206e6f6e20455243373231526560008201527f63656976657220696d706c656d656e7465720000000000000000000000000000602082015250565b7f4f776e61626c653a206e6577206f776e657220697320746865207a65726f206160008201527f6464726573730000000000000000000000000000000000000000000000000000602082015250565b7f4552433732313a207472616e736665722066726f6d20696e636f72726563742060008201527f6f776e6572000000000000000000000000000000000000000000000000000000602082015250565b7f4552433732313a20746f6b656e20616c7265616479206d696e74656400000000600082015250565b7f4552433732313a207472616e7366657220746f20746865207a65726f2061646460008201527f7265737300000000000000000000000000000000000000000000000000000000602082015250565b7f4552433732313a20617070726f766520746f2063616c6c657200000000000000600082015250565b7f4552433732313a206f70657261746f7220717565727920666f72206e6f6e657860008201527f697374656e7420746f6b656e0000000000000000000000000000000000000000602082015250565b7f4552433732313a20617070726f76652063616c6c6572206973206e6f74206f7760008201527f6e6572206e6f7220617070726f76656420666f7220616c6c0000000000000000602082015250565b7f4552433732313a2062616c616e636520717565727920666f7220746865207a6560008201527f726f206164647265737300000000000000000000000000000000000000000000602082015250565b7f4552433732313a206f776e657220717565727920666f72206e6f6e657869737460008201527f656e7420746f6b656e0000000000000000000000000000000000000000000000602082015250565b7f45524337323155524953746f726167653a2055524920736574206f66206e6f6e60008201527f6578697374656e7420746f6b656e000000000000000000000000000000000000602082015250565b7f4552433732313a206d696e7420746f20746865207a65726f2061646472657373600082015250565b7f45524337323155524953746f726167653a2055524920717565727920666f722060008201527f6e6f6e6578697374656e7420746f6b656e000000000000000000000000000000602082015250565b7f4552433732313a20617070726f76656420717565727920666f72206e6f6e657860008201527f697374656e7420746f6b656e0000000000000000000000000000000000000000602082015250565b7f4f776e61626c653a2063616c6c6572206973206e6f7420746865206f776e6572600082015250565b7f4552433732314d657461646174613a2055524920717565727920666f72206e6f60008201527f6e6578697374656e7420746f6b656e0000000000000000000000000000000000602082015250565b7f4552433732313a20617070726f76616c20746f2063757272656e74206f776e6560008201527f7200000000000000000000000000000000000000000000000000000000000000602082015250565b7f4552433732313a207472616e736665722063616c6c6572206973206e6f74206f60008201527f776e6572206e6f7220617070726f766564000000000000000000000000000000602082015250565b6131c481612a65565b81146131cf57600080fd5b50565b6131db81612a77565b81146131e657600080fd5b50565b6131f281612a83565b81146131fd57600080fd5b50565b61320981612acf565b811461321457600080fd5b5056fea2646970667358221220de26bb76e07f6a960e5b672b2cbee84f9c58663512cf16a227645c73e1cc7de764736f6c63430008030033",
  "immutableReferences": {},
  "source": "//Contract based on [https://docs.openzeppelin.com/contracts/3.x/erc721](https://docs.openzeppelin.com/contracts/3.x/erc721)\r\n// SPDX-License-Identifier: MIT\r\npragma solidity ^0.8.0;\r\nimport \"@openzeppelin/contracts/token/ERC721/ERC721.sol\";\r\nimport \"@openzeppelin/contracts/utils/Counters.sol\";\r\nimport \"@openzeppelin/contracts/access/Ownable.sol\";\r\nimport \"@openzeppelin/contracts/token/ERC721/extensions/ERC721URIStorage.sol\";\r\ncontract MyNFT is ERC721URIStorage, Ownable {\r\n    using Counters for Counters.Counter;\r\n    Counters.Counter private _tokenIds;\r\n    constructor() ERC721(\"MyNFT\", \"NFT\") {}\r\n    function mintNFT(address recipient, string memory tokenURI)\r\n        public onlyOwner\r\n        returns (uint256)\r\n    {\r\n        _tokenIds.increment();\r\n        uint256 newItemId = _tokenIds.current();\r\n        _mint(recipient, newItemId);\r\n        _setTokenURI(newItemId, tokenURI);\r\n        return newItemId;\r\n    }\r\n}\r\ncontract NftInsuranceDapp is ERC721URIStorage, Ownable, MyNFT {\r\n//define a User\r\n    struct User {\r\n        address user;\r\n        uint amount;\r\n        // we need to change the User address into qunique NFT ID\r\n        // uint id;\r\n    }    \r\n// create an array of users\r\n    User[] public users;\r\n// set a public payable function for user sign-up\r\n    function createUser() public payable {\r\n        require(msg.value >= 0);\r\n        users.push(User(msg.sender, msg.value));\r\n    }\r\n}",
  "sourcePath": "C:\\Users\\Alex\\Desktop\\main\\dvideo\\src\\contracts\\NftInsuranceDapp.sol",
  "compiler": {
    "name": "solc",
    "version": "0.8.3+commit.8d00100c.Emscripten.clang"
  },
  "schemaVersion": "3.4.7",
  "updatedAt": "2022-05-13T21:17:21.979Z",
  "networkType": "ethereum",
  "devdoc": {
    "kind": "dev",
    "methods": {
      "approve(address,uint256)": {
        "details": "See {IERC721-approve}."
      },
      "balanceOf(address)": {
        "details": "See {IERC721-balanceOf}."
      },
      "getApproved(uint256)": {
        "details": "See {IERC721-getApproved}."
      },
      "isApprovedForAll(address,address)": {
        "details": "See {IERC721-isApprovedForAll}."
      },
      "name()": {
        "details": "See {IERC721Metadata-name}."
      },
      "owner()": {
        "details": "Returns the address of the current owner."
      },
      "ownerOf(uint256)": {
        "details": "See {IERC721-ownerOf}."
      },
      "renounceOwnership()": {
        "details": "Leaves the contract without owner. It will not be possible to call `onlyOwner` functions anymore. Can only be called by the current owner. NOTE: Renouncing ownership will leave the contract without an owner, thereby removing any functionality that is only available to the owner."
      },
      "safeTransferFrom(address,address,uint256)": {
        "details": "See {IERC721-safeTransferFrom}."
      },
      "safeTransferFrom(address,address,uint256,bytes)": {
        "details": "See {IERC721-safeTransferFrom}."
      },
      "setApprovalForAll(address,bool)": {
        "details": "See {IERC721-setApprovalForAll}."
      },
      "supportsInterface(bytes4)": {
        "details": "See {IERC165-supportsInterface}."
      },
      "symbol()": {
        "details": "See {IERC721Metadata-symbol}."
      },
      "tokenURI(uint256)": {
        "details": "See {IERC721Metadata-tokenURI}."
      },
      "transferFrom(address,address,uint256)": {
        "details": "See {IERC721-transferFrom}."
      },
      "transferOwnership(address)": {
        "details": "Transfers ownership of the contract to a new account (`newOwner`). Can only be called by the current owner."
      }
    },
    "version": 1
  },
  "userdoc": {
    "kind": "user",
    "methods": {},
    "version": 1
  }
}